{
    "_format": "hh-sol-artifact-1",
    "contractName": "Domains",
    "sourceName": "contracts/Domains.sol",
    "abi": [
        {
            "inputs": [
                {
                    "internalType": "string",
                    "name": "_tld",
                    "type": "string"
                }
            ],
            "stateMutability": "payable",
            "type": "constructor"
        },
        {
            "anonymous": false,
            "inputs": [
                {
                    "indexed": true,
                    "internalType": "address",
                    "name": "owner",
                    "type": "address"
                },
                {
                    "indexed": true,
                    "internalType": "address",
                    "name": "approved",
                    "type": "address"
                },
                {
                    "indexed": true,
                    "internalType": "uint256",
                    "name": "tokenId",
                    "type": "uint256"
                }
            ],
            "name": "Approval",
            "type": "event"
        },
        {
            "anonymous": false,
            "inputs": [
                {
                    "indexed": true,
                    "internalType": "address",
                    "name": "owner",
                    "type": "address"
                },
                {
                    "indexed": true,
                    "internalType": "address",
                    "name": "operator",
                    "type": "address"
                },
                {
                    "indexed": false,
                    "internalType": "bool",
                    "name": "approved",
                    "type": "bool"
                }
            ],
            "name": "ApprovalForAll",
            "type": "event"
        },
        {
            "anonymous": false,
            "inputs": [
                {
                    "indexed": true,
                    "internalType": "address",
                    "name": "from",
                    "type": "address"
                },
                {
                    "indexed": true,
                    "internalType": "address",
                    "name": "to",
                    "type": "address"
                },
                {
                    "indexed": true,
                    "internalType": "uint256",
                    "name": "tokenId",
                    "type": "uint256"
                }
            ],
            "name": "Transfer",
            "type": "event"
        },
        {
            "inputs": [
                {
                    "internalType": "address",
                    "name": "to",
                    "type": "address"
                },
                {
                    "internalType": "uint256",
                    "name": "tokenId",
                    "type": "uint256"
                }
            ],
            "name": "approve",
            "outputs": [],
            "stateMutability": "nonpayable",
            "type": "function"
        },
        {
            "inputs": [
                {
                    "internalType": "address",
                    "name": "owner",
                    "type": "address"
                }
            ],
            "name": "balanceOf",
            "outputs": [
                {
                    "internalType": "uint256",
                    "name": "",
                    "type": "uint256"
                }
            ],
            "stateMutability": "view",
            "type": "function"
        },
        {
            "inputs": [
                {
                    "internalType": "string",
                    "name": "",
                    "type": "string"
                }
            ],
            "name": "domains",
            "outputs": [
                {
                    "internalType": "address",
                    "name": "",
                    "type": "address"
                }
            ],
            "stateMutability": "view",
            "type": "function"
        },
        {
            "inputs": [
                {
                    "internalType": "uint256",
                    "name": "tokenId",
                    "type": "uint256"
                }
            ],
            "name": "getApproved",
            "outputs": [
                {
                    "internalType": "address",
                    "name": "",
                    "type": "address"
                }
            ],
            "stateMutability": "view",
            "type": "function"
        },
        {
            "inputs": [
                {
                    "internalType": "address",
                    "name": "owner",
                    "type": "address"
                },
                {
                    "internalType": "address",
                    "name": "operator",
                    "type": "address"
                }
            ],
            "name": "isApprovedForAll",
            "outputs": [
                {
                    "internalType": "bool",
                    "name": "",
                    "type": "bool"
                }
            ],
            "stateMutability": "view",
            "type": "function"
        },
        {
            "inputs": [],
            "name": "name",
            "outputs": [
                {
                    "internalType": "string",
                    "name": "",
                    "type": "string"
                }
            ],
            "stateMutability": "view",
            "type": "function"
        },
        {
            "inputs": [
                {
                    "internalType": "uint256",
                    "name": "tokenId",
                    "type": "uint256"
                }
            ],
            "name": "ownerOf",
            "outputs": [
                {
                    "internalType": "address",
                    "name": "",
                    "type": "address"
                }
            ],
            "stateMutability": "view",
            "type": "function"
        },
        {
            "inputs": [
                {
                    "internalType": "string",
                    "name": "",
                    "type": "string"
                }
            ],
            "name": "records",
            "outputs": [
                {
                    "internalType": "string",
                    "name": "",
                    "type": "string"
                }
            ],
            "stateMutability": "view",
            "type": "function"
        },
        {
            "inputs": [
                {
                    "internalType": "string",
                    "name": "name",
                    "type": "string"
                }
            ],
            "name": "register",
            "outputs": [],
            "stateMutability": "payable",
            "type": "function"
        },
        {
            "inputs": [
                {
                    "internalType": "address",
                    "name": "from",
                    "type": "address"
                },
                {
                    "internalType": "address",
                    "name": "to",
                    "type": "address"
                },
                {
                    "internalType": "uint256",
                    "name": "tokenId",
                    "type": "uint256"
                }
            ],
            "name": "safeTransferFrom",
            "outputs": [],
            "stateMutability": "nonpayable",
            "type": "function"
        },
        {
            "inputs": [
                {
                    "internalType": "address",
                    "name": "from",
                    "type": "address"
                },
                {
                    "internalType": "address",
                    "name": "to",
                    "type": "address"
                },
                {
                    "internalType": "uint256",
                    "name": "tokenId",
                    "type": "uint256"
                },
                {
                    "internalType": "bytes",
                    "name": "_data",
                    "type": "bytes"
                }
            ],
            "name": "safeTransferFrom",
            "outputs": [],
            "stateMutability": "nonpayable",
            "type": "function"
        },
        {
            "inputs": [
                {
                    "internalType": "address",
                    "name": "operator",
                    "type": "address"
                },
                {
                    "internalType": "bool",
                    "name": "approved",
                    "type": "bool"
                }
            ],
            "name": "setApprovalForAll",
            "outputs": [],
            "stateMutability": "nonpayable",
            "type": "function"
        },
        {
            "inputs": [
                {
                    "internalType": "bytes4",
                    "name": "interfaceId",
                    "type": "bytes4"
                }
            ],
            "name": "supportsInterface",
            "outputs": [
                {
                    "internalType": "bool",
                    "name": "",
                    "type": "bool"
                }
            ],
            "stateMutability": "view",
            "type": "function"
        },
        {
            "inputs": [],
            "name": "symbol",
            "outputs": [
                {
                    "internalType": "string",
                    "name": "",
                    "type": "string"
                }
            ],
            "stateMutability": "view",
            "type": "function"
        },
        {
            "inputs": [],
            "name": "tld",
            "outputs": [
                {
                    "internalType": "string",
                    "name": "",
                    "type": "string"
                }
            ],
            "stateMutability": "view",
            "type": "function"
        },
        {
            "inputs": [
                {
                    "internalType": "uint256",
                    "name": "tokenId",
                    "type": "uint256"
                }
            ],
            "name": "tokenURI",
            "outputs": [
                {
                    "internalType": "string",
                    "name": "",
                    "type": "string"
                }
            ],
            "stateMutability": "view",
            "type": "function"
        },
        {
            "inputs": [
                {
                    "internalType": "address",
                    "name": "from",
                    "type": "address"
                },
                {
                    "internalType": "address",
                    "name": "to",
                    "type": "address"
                },
                {
                    "internalType": "uint256",
                    "name": "tokenId",
                    "type": "uint256"
                }
            ],
            "name": "transferFrom",
            "outputs": [],
            "stateMutability": "nonpayable",
            "type": "function"
        }
    ],
    "bytecode": "0x6080604052604051806108a0016040528061086b81526020016200441b61086b9139600990805190602001906200003892919062000287565b506040518060400160405280600d81526020017f3c2f746578743e3c2f7376673e00000000000000000000000000000000000000815250600a90805190602001906200008692919062000287565b5060405162004c8638038062004c868339818101604052810190620000ac9190620004d4565b6040518060400160405280601281526020017f5369676d61204e616d65205365727669636500000000000000000000000000008152506040518060400160405280600381526020017f534e53000000000000000000000000000000000000000000000000000000000081525081600090805190602001906200013092919062000287565b5080600190805190602001906200014992919062000287565b50505080600890805190602001906200016492919062000287565b50620001b16040518060400160405280601881526020017f2573206e616d652073657276696365206465706c6f796564000000000000000081525082620001b860201b6200115c1760201c565b5062000622565b6200025a8282604051602401620001d192919062000582565b6040516020818303038152906040527f4b5c4277000000000000000000000000000000000000000000000000000000007bffffffffffffffffffffffffffffffffffffffffffffffffffffffff19166020820180517bffffffffffffffffffffffffffffffffffffffffffffffffffffffff83818316178352505050506200025e60201b60201c565b5050565b60008151905060006a636f6e736f6c652e6c6f679050602083016000808483855afa5050505050565b8280546200029590620005ec565b90600052602060002090601f016020900481019282620002b9576000855562000305565b82601f10620002d457805160ff191683800117855562000305565b8280016001018555821562000305579182015b8281111562000304578251825591602001919060010190620002e7565b5b50905062000314919062000318565b5090565b5b808211156200033357600081600090555060010162000319565b5090565b6000604051905090565b600080fd5b600080fd5b600080fd5b600080fd5b6000601f19601f8301169050919050565b7f4e487b7100000000000000000000000000000000000000000000000000000000600052604160045260246000fd5b620003a08262000355565b810181811067ffffffffffffffff82111715620003c257620003c162000366565b5b80604052505050565b6000620003d762000337565b9050620003e5828262000395565b919050565b600067ffffffffffffffff82111562000408576200040762000366565b5b620004138262000355565b9050602081019050919050565b60005b838110156200044057808201518184015260208101905062000423565b8381111562000450576000848401525b50505050565b60006200046d6200046784620003ea565b620003cb565b9050828152602081018484840111156200048c576200048b62000350565b5b6200049984828562000420565b509392505050565b600082601f830112620004b957620004b86200034b565b5b8151620004cb84826020860162000456565b91505092915050565b600060208284031215620004ed57620004ec62000341565b5b600082015167ffffffffffffffff8111156200050e576200050d62000346565b5b6200051c84828501620004a1565b91505092915050565b600081519050919050565b600082825260208201905092915050565b60006200054e8262000525565b6200055a818562000530565b93506200056c81856020860162000420565b620005778162000355565b840191505092915050565b600060408201905081810360008301526200059e818562000541565b90508181036020830152620005b4818462000541565b90509392505050565b7f4e487b7100000000000000000000000000000000000000000000000000000000600052602260045260246000fd5b600060028204905060018216806200060557607f821691505b602082108114156200061c576200061b620005bd565b5b50919050565b613de980620006326000396000f3fe6080604052600436106100fe5760003560e01c8063541e771d11610095578063a22cb46511610064578063a22cb4651461036d578063b88d4fde14610396578063c87b56dd146103bf578063e985e9c5146103fc578063f2c298be14610439576100fe565b8063541e771d1461028b5780636352211e146102c857806370a082311461030557806395d89b4114610342576100fe565b806323b872dd116100d157806323b872dd146101d157806326449235146101fa5780632d5514321461023757806342842e0e14610262576100fe565b806301ffc9a71461010357806306fdde0314610140578063081812fc1461016b578063095ea7b3146101a8575b600080fd5b34801561010f57600080fd5b5061012a6004803603810190610125919061251c565b610455565b6040516101379190612564565b60405180910390f35b34801561014c57600080fd5b50610155610537565b6040516101629190612618565b60405180910390f35b34801561017757600080fd5b50610192600480360381019061018d9190612670565b6105c9565b60405161019f91906126de565b60405180910390f35b3480156101b457600080fd5b506101cf60048036038101906101ca9190612725565b61064e565b005b3480156101dd57600080fd5b506101f860048036038101906101f39190612765565b610766565b005b34801561020657600080fd5b50610221600480360381019061021c91906128ed565b6107c6565b60405161022e91906126de565b60405180910390f35b34801561024357600080fd5b5061024c61080f565b6040516102599190612618565b60405180910390f35b34801561026e57600080fd5b5061028960048036038101906102849190612765565b61089d565b005b34801561029757600080fd5b506102b260048036038101906102ad91906128ed565b6108bd565b6040516102bf9190612618565b60405180910390f35b3480156102d457600080fd5b506102ef60048036038101906102ea9190612670565b610973565b6040516102fc91906126de565b60405180910390f35b34801561031157600080fd5b5061032c60048036038101906103279190612936565b610a25565b6040516103399190612972565b60405180910390f35b34801561034e57600080fd5b50610357610add565b6040516103649190612618565b60405180910390f35b34801561037957600080fd5b50610394600480360381019061038f91906129b9565b610b6f565b005b3480156103a257600080fd5b506103bd60048036038101906103b89190612a9a565b610b85565b005b3480156103cb57600080fd5b506103e660048036038101906103e19190612670565b610be7565b6040516103f39190612618565b60405180910390f35b34801561040857600080fd5b50610423600480360381019061041e9190612b1d565b610d39565b6040516104309190612564565b60405180910390f35b610453600480360381019061044e9190612bbd565b610dcd565b005b60007f80ac58cd000000000000000000000000000000000000000000000000000000007bffffffffffffffffffffffffffffffffffffffffffffffffffffffff1916827bffffffffffffffffffffffffffffffffffffffffffffffffffffffff1916148061052057507f5b5e139f000000000000000000000000000000000000000000000000000000007bffffffffffffffffffffffffffffffffffffffffffffffffffffffff1916827bffffffffffffffffffffffffffffffffffffffffffffffffffffffff1916145b80610530575061052f826111f8565b5b9050919050565b60606000805461054690612c39565b80601f016020809104026020016040519081016040528092919081815260200182805461057290612c39565b80156105bf5780601f10610594576101008083540402835291602001916105bf565b820191906000526020600020905b8154815290600101906020018083116105a257829003601f168201915b5050505050905090565b60006105d482611262565b610613576040517f08c379a000000000000000000000000000000000000000000000000000000000815260040161060a90612cdd565b60405180910390fd5b6004600083815260200190815260200160002060009054906101000a900473ffffffffffffffffffffffffffffffffffffffff169050919050565b600061065982610973565b90508073ffffffffffffffffffffffffffffffffffffffff168373ffffffffffffffffffffffffffffffffffffffff1614156106ca576040517f08c379a00000000000000000000000000000000000000000000000000000000081526004016106c190612d6f565b60405180910390fd5b8073ffffffffffffffffffffffffffffffffffffffff166106e96112ce565b73ffffffffffffffffffffffffffffffffffffffff1614806107185750610717816107126112ce565b610d39565b5b610757576040517f08c379a000000000000000000000000000000000000000000000000000000000815260040161074e90612e01565b60405180910390fd5b61076183836112d6565b505050565b6107776107716112ce565b8261138f565b6107b6576040517f08c379a00000000000000000000000000000000000000000000000000000000081526004016107ad90612e93565b60405180910390fd5b6107c183838361146d565b505050565b600b818051602081018201805184825260208301602085012081835280955050505050506000915054906101000a900473ffffffffffffffffffffffffffffffffffffffff1681565b6008805461081c90612c39565b80601f016020809104026020016040519081016040528092919081815260200182805461084890612c39565b80156108955780601f1061086a57610100808354040283529160200191610895565b820191906000526020600020905b81548152906001019060200180831161087857829003601f168201915b505050505081565b6108b883838360405180602001604052806000815250610b85565b505050565b600c8180516020810182018051848252602083016020850120818352809550505050505060009150905080546108f290612c39565b80601f016020809104026020016040519081016040528092919081815260200182805461091e90612c39565b801561096b5780601f106109405761010080835404028352916020019161096b565b820191906000526020600020905b81548152906001019060200180831161094e57829003601f168201915b505050505081565b6000806002600084815260200190815260200160002060009054906101000a900473ffffffffffffffffffffffffffffffffffffffff169050600073ffffffffffffffffffffffffffffffffffffffff168173ffffffffffffffffffffffffffffffffffffffff161415610a1c576040517f08c379a0000000000000000000000000000000000000000000000000000000008152600401610a1390612f25565b60405180910390fd5b80915050919050565b60008073ffffffffffffffffffffffffffffffffffffffff168273ffffffffffffffffffffffffffffffffffffffff161415610a96576040517f08c379a0000000000000000000000000000000000000000000000000000000008152600401610a8d90612fb7565b60405180910390fd5b600360008373ffffffffffffffffffffffffffffffffffffffff1673ffffffffffffffffffffffffffffffffffffffff168152602001908152602001600020549050919050565b606060018054610aec90612c39565b80601f0160208091040260200160405190810160405280929190818152602001828054610b1890612c39565b8015610b655780601f10610b3a57610100808354040283529160200191610b65565b820191906000526020600020905b815481529060010190602001808311610b4857829003601f168201915b5050505050905090565b610b81610b7a6112ce565b83836116d4565b5050565b610b96610b906112ce565b8361138f565b610bd5576040517f08c379a0000000000000000000000000000000000000000000000000000000008152600401610bcc90612e93565b60405180910390fd5b610be184848484611841565b50505050565b6060610bf282611262565b610c31576040517f08c379a0000000000000000000000000000000000000000000000000000000008152600401610c2890613049565b60405180910390fd5b6000600660008481526020019081526020016000208054610c5190612c39565b80601f0160208091040260200160405190810160405280929190818152602001828054610c7d90612c39565b8015610cca5780601f10610c9f57610100808354040283529160200191610cca565b820191906000526020600020905b815481529060010190602001808311610cad57829003601f168201915b505050505090506000610cdb61189d565b9050600081511415610cf1578192505050610d34565b600082511115610d26578082604051602001610d0e9291906130a5565b60405160208183030381529060405292505050610d34565b610d2f846118b4565b925050505b919050565b6000600560008473ffffffffffffffffffffffffffffffffffffffff1673ffffffffffffffffffffffffffffffffffffffff16815260200190815260200160002060008373ffffffffffffffffffffffffffffffffffffffff1673ffffffffffffffffffffffffffffffffffffffff16815260200190815260200160002060009054906101000a900460ff16905092915050565b600073ffffffffffffffffffffffffffffffffffffffff16600b8383604051610df79291906130ee565b908152602001604051809103902060009054906101000a900473ffffffffffffffffffffffffffffffffffffffff1673ffffffffffffffffffffffffffffffffffffffff1614610e4657600080fd5b600082826008604051602001610e5e939291906131e7565b60405160208183030381529060405290506000600982600a604051602001610e8893929190613218565b60405160208183030381529060405290506000610ea5600761195b565b90506000610ef686868080601f016020809104026020016040519081016040528093929190818152602001838380828437600081840152601f19601f82011690508083019250505050505050611969565b90506000610f0382611b1e565b9050610ff7604051806060016040528060318152602001613d0a6031913988888080601f016020809104026020016040519081016040528093929190818152602001838380828437600081840152601f19601f8201169050808301925050505050505060088054610f7390612c39565b80601f0160208091040260200160405190810160405280929190818152602001828054610f9f90612c39565b8015610fec5780601f10610fc157610100808354040283529160200191610fec565b820191906000526020600020905b815481529060010190602001808311610fcf57829003601f168201915b505050505086611c7f565b600061102d8661100687611d21565b84604051602001611019939291906133c5565b604051602081830303815290604052611d21565b9050600081604051602001611042919061346e565b6040516020818303038152906040529050611074604051806060016040528060398152602001613cd160399139611eb9565b6110b36040518060400160405280600e81526020017f46696e616c20746f6b656e5552490000000000000000000000000000000000008152508261115c565b6110d4604051806060016040528060398152602001613d3b60399139611eb9565b6110de3386611f52565b6110e88582611f70565b33600b8a8a6040516110fb9291906130ee565b908152602001604051809103902060006101000a81548173ffffffffffffffffffffffffffffffffffffffff021916908373ffffffffffffffffffffffffffffffffffffffff1602179055506111516007611fe4565b505050505050505050565b6111f48282604051602401611172929190613490565b6040516020818303038152906040527f4b5c4277000000000000000000000000000000000000000000000000000000007bffffffffffffffffffffffffffffffffffffffffffffffffffffffff19166020820180517bffffffffffffffffffffffffffffffffffffffffffffffffffffffff8381831617835250505050611ffa565b5050565b60007f01ffc9a7000000000000000000000000000000000000000000000000000000007bffffffffffffffffffffffffffffffffffffffffffffffffffffffff1916827bffffffffffffffffffffffffffffffffffffffffffffffffffffffff1916149050919050565b60008073ffffffffffffffffffffffffffffffffffffffff166002600084815260200190815260200160002060009054906101000a900473ffffffffffffffffffffffffffffffffffffffff1673ffffffffffffffffffffffffffffffffffffffff1614159050919050565b600033905090565b816004600083815260200190815260200160002060006101000a81548173ffffffffffffffffffffffffffffffffffffffff021916908373ffffffffffffffffffffffffffffffffffffffff160217905550808273ffffffffffffffffffffffffffffffffffffffff1661134983610973565b73ffffffffffffffffffffffffffffffffffffffff167f8c5be1e5ebec7d5bd14f71427d1e84f3dd0314c0f7b2291e5b200ac8c7c3b92560405160405180910390a45050565b600061139a82611262565b6113d9576040517f08c379a00000000000000000000000000000000000000000000000000000000081526004016113d090613539565b60405180910390fd5b60006113e483610973565b90508073ffffffffffffffffffffffffffffffffffffffff168473ffffffffffffffffffffffffffffffffffffffff16148061145357508373ffffffffffffffffffffffffffffffffffffffff1661143b846105c9565b73ffffffffffffffffffffffffffffffffffffffff16145b8061146457506114638185610d39565b5b91505092915050565b8273ffffffffffffffffffffffffffffffffffffffff1661148d82610973565b73ffffffffffffffffffffffffffffffffffffffff16146114e3576040517f08c379a00000000000000000000000000000000000000000000000000000000081526004016114da906135cb565b60405180910390fd5b600073ffffffffffffffffffffffffffffffffffffffff168273ffffffffffffffffffffffffffffffffffffffff161415611553576040517f08c379a000000000000000000000000000000000000000000000000000000000815260040161154a9061365d565b60405180910390fd5b61155e838383612023565b6115696000826112d6565b6001600360008573ffffffffffffffffffffffffffffffffffffffff1673ffffffffffffffffffffffffffffffffffffffff16815260200190815260200160002060008282546115b991906136ac565b925050819055506001600360008473ffffffffffffffffffffffffffffffffffffffff1673ffffffffffffffffffffffffffffffffffffffff168152602001908152602001600020600082825461161091906136e0565b92505081905550816002600083815260200190815260200160002060006101000a81548173ffffffffffffffffffffffffffffffffffffffff021916908373ffffffffffffffffffffffffffffffffffffffff160217905550808273ffffffffffffffffffffffffffffffffffffffff168473ffffffffffffffffffffffffffffffffffffffff167fddf252ad1be2c89b69c2b068fc378daa952ba7f163c4a11628f55a4df523b3ef60405160405180910390a46116cf838383612028565b505050565b8173ffffffffffffffffffffffffffffffffffffffff168373ffffffffffffffffffffffffffffffffffffffff161415611743576040517f08c379a000000000000000000000000000000000000000000000000000000000815260040161173a90613782565b60405180910390fd5b80600560008573ffffffffffffffffffffffffffffffffffffffff1673ffffffffffffffffffffffffffffffffffffffff16815260200190815260200160002060008473ffffffffffffffffffffffffffffffffffffffff1673ffffffffffffffffffffffffffffffffffffffff16815260200190815260200160002060006101000a81548160ff0219169083151502179055508173ffffffffffffffffffffffffffffffffffffffff168373ffffffffffffffffffffffffffffffffffffffff167f17307eab39ab6107e8899845ad3d59bd9653f200f220920489ca2b5937696c31836040516118349190612564565b60405180910390a3505050565b61184c84848461146d565b6118588484848461202d565b611897576040517f08c379a000000000000000000000000000000000000000000000000000000000815260040161188e90613814565b60405180910390fd5b50505050565b606060405180602001604052806000815250905090565b60606118bf82611262565b6118fe576040517f08c379a00000000000000000000000000000000000000000000000000000000081526004016118f5906138a6565b60405180910390fd5b600061190861189d565b905060008151116119285760405180602001604052806000815250611953565b8061193284611b1e565b6040516020016119439291906130a5565b6040516020818303038152906040525b915050919050565b600081600001549050919050565b60008060008084519050600092505b80821015611b13576000858381518110611995576119946138c6565b5b602001015160f81c60f81b9050608060f81b817effffffffffffffffffffffffffffffffffffffffffffffffffffffffffffff191610156119e4576001836119dd91906136e0565b9250611aff565b60e060f81b817effffffffffffffffffffffffffffffffffffffffffffffffffffffffffffff19161015611a2657600283611a1f91906136e0565b9250611afe565b60f060f81b817effffffffffffffffffffffffffffffffffffffffffffffffffffffffffffff19161015611a6857600383611a6191906136e0565b9250611afd565b60f8801b817effffffffffffffffffffffffffffffffffffffffffffffffffffffffffffff19161015611aa957600483611aa291906136e0565b9250611afc565b60fc60f81b817effffffffffffffffffffffffffffffffffffffffffffffffffffffffffffff19161015611aeb57600583611ae491906136e0565b9250611afb565b600683611af891906136e0565b92505b5b5b5b5b508280611b0b906138f5565b935050611978565b829350505050919050565b60606000821415611b66576040518060400160405280600181526020017f30000000000000000000000000000000000000000000000000000000000000008152509050611c7a565b600082905060005b60008214611b98578080611b81906138f5565b915050600a82611b91919061396d565b9150611b6e565b60008167ffffffffffffffff811115611bb457611bb36127c2565b5b6040519080825280601f01601f191660200182016040528015611be65781602001600182028036833780820191505090505b5090505b60008514611c7357600182611bff91906136ac565b9150600a85611c0e919061399e565b6030611c1a91906136e0565b60f81b818381518110611c3057611c2f6138c6565b5b60200101907effffffffffffffffffffffffffffffffffffffffffffffffffffffffffffff1916908160001a905350600a85611c6c919061396d565b9450611bea565b8093505050505b919050565b611d1b84848484604051602401611c9994939291906139cf565b6040516020818303038152906040527f9fd009f5000000000000000000000000000000000000000000000000000000007bffffffffffffffffffffffffffffffffffffffffffffffffffffffff19166020820180517bffffffffffffffffffffffffffffffffffffffffffffffffffffffff8381831617835250505050611ffa565b50505050565b60606000825190506000811415611d4a5760405180602001604052806000815250915050611eb4565b60006003600283611d5b91906136e0565b611d65919061396d565b6004611d719190613a29565b90506000602082611d8291906136e0565b67ffffffffffffffff811115611d9b57611d9a6127c2565b5b6040519080825280601f01601f191660200182016040528015611dcd5781602001600182028036833780820191505090505b5090506000604051806060016040528060408152602001613d74604091399050600181016020830160005b86811015611e715760038101905062ffffff818a015116603f8160121c168401518060081b905060ff603f83600c1c1686015116810190508060081b905060ff603f8360061c1686015116810190508060081b905060ff603f831686015116810190508060e01b90508084526004840193505050611df8565b506003860660018114611e8b5760028114611e9b57611ea6565b613d3d60f01b6002830352611ea6565b603d60f81b60018303525b508484525050819450505050505b919050565b611f4f81604051602401611ecd9190612618565b6040516020818303038152906040527f41304fac000000000000000000000000000000000000000000000000000000007bffffffffffffffffffffffffffffffffffffffffffffffffffffffff19166020820180517bffffffffffffffffffffffffffffffffffffffffffffffffffffffff8381831617835250505050611ffa565b50565b611f6c8282604051806020016040528060008152506121b5565b5050565b611f7982611262565b611fb8576040517f08c379a0000000000000000000000000000000000000000000000000000000008152600401611faf90613af5565b60405180910390fd5b80600660008481526020019081526020016000209080519060200190611fdf92919061240d565b505050565b6001816000016000828254019250508190555050565b60008151905060006a636f6e736f6c652e6c6f679050602083016000808483855afa5050505050565b505050565b505050565b600061204e8473ffffffffffffffffffffffffffffffffffffffff16612210565b156121a8578373ffffffffffffffffffffffffffffffffffffffff1663150b7a026120776112ce565b8786866040518563ffffffff1660e01b81526004016120999493929190613b6a565b6020604051808303816000875af19250505080156120d557506040513d601f19601f820116820180604052508101906120d29190613bcb565b60015b612158573d8060008114612105576040519150601f19603f3d011682016040523d82523d6000602084013e61210a565b606091505b50600081511415612150576040517f08c379a000000000000000000000000000000000000000000000000000000000815260040161214790613814565b60405180910390fd5b805181602001fd5b63150b7a0260e01b7bffffffffffffffffffffffffffffffffffffffffffffffffffffffff1916817bffffffffffffffffffffffffffffffffffffffffffffffffffffffff1916149150506121ad565b600190505b949350505050565b6121bf8383612233565b6121cc600084848461202d565b61220b576040517f08c379a000000000000000000000000000000000000000000000000000000000815260040161220290613814565b60405180910390fd5b505050565b6000808273ffffffffffffffffffffffffffffffffffffffff163b119050919050565b600073ffffffffffffffffffffffffffffffffffffffff168273ffffffffffffffffffffffffffffffffffffffff1614156122a3576040517f08c379a000000000000000000000000000000000000000000000000000000000815260040161229a90613c44565b60405180910390fd5b6122ac81611262565b156122ec576040517f08c379a00000000000000000000000000000000000000000000000000000000081526004016122e390613cb0565b60405180910390fd5b6122f860008383612023565b6001600360008473ffffffffffffffffffffffffffffffffffffffff1673ffffffffffffffffffffffffffffffffffffffff168152602001908152602001600020600082825461234891906136e0565b92505081905550816002600083815260200190815260200160002060006101000a81548173ffffffffffffffffffffffffffffffffffffffff021916908373ffffffffffffffffffffffffffffffffffffffff160217905550808273ffffffffffffffffffffffffffffffffffffffff16600073ffffffffffffffffffffffffffffffffffffffff167fddf252ad1be2c89b69c2b068fc378daa952ba7f163c4a11628f55a4df523b3ef60405160405180910390a461240960008383612028565b5050565b82805461241990612c39565b90600052602060002090601f01602090048101928261243b5760008555612482565b82601f1061245457805160ff1916838001178555612482565b82800160010185558215612482579182015b82811115612481578251825591602001919060010190612466565b5b50905061248f9190612493565b5090565b5b808211156124ac576000816000905550600101612494565b5090565b6000604051905090565b600080fd5b600080fd5b60007fffffffff0000000000000000000000000000000000000000000000000000000082169050919050565b6124f9816124c4565b811461250457600080fd5b50565b600081359050612516816124f0565b92915050565b600060208284031215612532576125316124ba565b5b600061254084828501612507565b91505092915050565b60008115159050919050565b61255e81612549565b82525050565b60006020820190506125796000830184612555565b92915050565b600081519050919050565b600082825260208201905092915050565b60005b838110156125b957808201518184015260208101905061259e565b838111156125c8576000848401525b50505050565b6000601f19601f8301169050919050565b60006125ea8261257f565b6125f4818561258a565b935061260481856020860161259b565b61260d816125ce565b840191505092915050565b6000602082019050818103600083015261263281846125df565b905092915050565b6000819050919050565b61264d8161263a565b811461265857600080fd5b50565b60008135905061266a81612644565b92915050565b600060208284031215612686576126856124ba565b5b60006126948482850161265b565b91505092915050565b600073ffffffffffffffffffffffffffffffffffffffff82169050919050565b60006126c88261269d565b9050919050565b6126d8816126bd565b82525050565b60006020820190506126f360008301846126cf565b92915050565b612702816126bd565b811461270d57600080fd5b50565b60008135905061271f816126f9565b92915050565b6000806040838503121561273c5761273b6124ba565b5b600061274a85828601612710565b925050602061275b8582860161265b565b9150509250929050565b60008060006060848603121561277e5761277d6124ba565b5b600061278c86828701612710565b935050602061279d86828701612710565b92505060406127ae8682870161265b565b9150509250925092565b600080fd5b600080fd5b7f4e487b7100000000000000000000000000000000000000000000000000000000600052604160045260246000fd5b6127fa826125ce565b810181811067ffffffffffffffff82111715612819576128186127c2565b5b80604052505050565b600061282c6124b0565b905061283882826127f1565b919050565b600067ffffffffffffffff821115612858576128576127c2565b5b612861826125ce565b9050602081019050919050565b82818337600083830152505050565b600061289061288b8461283d565b612822565b9050828152602081018484840111156128ac576128ab6127bd565b5b6128b784828561286e565b509392505050565b600082601f8301126128d4576128d36127b8565b5b81356128e484826020860161287d565b91505092915050565b600060208284031215612903576129026124ba565b5b600082013567ffffffffffffffff811115612921576129206124bf565b5b61292d848285016128bf565b91505092915050565b60006020828403121561294c5761294b6124ba565b5b600061295a84828501612710565b91505092915050565b61296c8161263a565b82525050565b60006020820190506129876000830184612963565b92915050565b61299681612549565b81146129a157600080fd5b50565b6000813590506129b38161298d565b92915050565b600080604083850312156129d0576129cf6124ba565b5b60006129de85828601612710565b92505060206129ef858286016129a4565b9150509250929050565b600067ffffffffffffffff821115612a1457612a136127c2565b5b612a1d826125ce565b9050602081019050919050565b6000612a3d612a38846129f9565b612822565b905082815260208101848484011115612a5957612a586127bd565b5b612a6484828561286e565b509392505050565b600082601f830112612a8157612a806127b8565b5b8135612a91848260208601612a2a565b91505092915050565b60008060008060808587031215612ab457612ab36124ba565b5b6000612ac287828801612710565b9450506020612ad387828801612710565b9350506040612ae48782880161265b565b925050606085013567ffffffffffffffff811115612b0557612b046124bf565b5b612b1187828801612a6c565b91505092959194509250565b60008060408385031215612b3457612b336124ba565b5b6000612b4285828601612710565b9250506020612b5385828601612710565b9150509250929050565b600080fd5b600080fd5b60008083601f840112612b7d57612b7c6127b8565b5b8235905067ffffffffffffffff811115612b9a57612b99612b5d565b5b602083019150836001820283011115612bb657612bb5612b62565b5b9250929050565b60008060208385031215612bd457612bd36124ba565b5b600083013567ffffffffffffffff811115612bf257612bf16124bf565b5b612bfe85828601612b67565b92509250509250929050565b7f4e487b7100000000000000000000000000000000000000000000000000000000600052602260045260246000fd5b60006002820490506001821680612c5157607f821691505b60208210811415612c6557612c64612c0a565b5b50919050565b7f4552433732313a20617070726f76656420717565727920666f72206e6f6e657860008201527f697374656e7420746f6b656e0000000000000000000000000000000000000000602082015250565b6000612cc7602c8361258a565b9150612cd282612c6b565b604082019050919050565b60006020820190508181036000830152612cf681612cba565b9050919050565b7f4552433732313a20617070726f76616c20746f2063757272656e74206f776e6560008201527f7200000000000000000000000000000000000000000000000000000000000000602082015250565b6000612d5960218361258a565b9150612d6482612cfd565b604082019050919050565b60006020820190508181036000830152612d8881612d4c565b9050919050565b7f4552433732313a20617070726f76652063616c6c6572206973206e6f74206f7760008201527f6e6572206e6f7220617070726f76656420666f7220616c6c0000000000000000602082015250565b6000612deb60388361258a565b9150612df682612d8f565b604082019050919050565b60006020820190508181036000830152612e1a81612dde565b9050919050565b7f4552433732313a207472616e736665722063616c6c6572206973206e6f74206f60008201527f776e6572206e6f7220617070726f766564000000000000000000000000000000602082015250565b6000612e7d60318361258a565b9150612e8882612e21565b604082019050919050565b60006020820190508181036000830152612eac81612e70565b9050919050565b7f4552433732313a206f776e657220717565727920666f72206e6f6e657869737460008201527f656e7420746f6b656e0000000000000000000000000000000000000000000000602082015250565b6000612f0f60298361258a565b9150612f1a82612eb3565b604082019050919050565b60006020820190508181036000830152612f3e81612f02565b9050919050565b7f4552433732313a2062616c616e636520717565727920666f7220746865207a6560008201527f726f206164647265737300000000000000000000000000000000000000000000602082015250565b6000612fa1602a8361258a565b9150612fac82612f45565b604082019050919050565b60006020820190508181036000830152612fd081612f94565b9050919050565b7f45524337323155524953746f726167653a2055524920717565727920666f722060008201527f6e6f6e6578697374656e7420746f6b656e000000000000000000000000000000602082015250565b600061303360318361258a565b915061303e82612fd7565b604082019050919050565b6000602082019050818103600083015261306281613026565b9050919050565b600081905092915050565b600061307f8261257f565b6130898185613069565b935061309981856020860161259b565b80840191505092915050565b60006130b18285613074565b91506130bd8284613074565b91508190509392505050565b60006130d58385613069565b93506130e283858461286e565b82840190509392505050565b60006130fb8284866130c9565b91508190509392505050565b7f2e00000000000000000000000000000000000000000000000000000000000000600082015250565b600061313d600183613069565b915061314882613107565b600182019050919050565b60008190508160005260206000209050919050565b6000815461317581612c39565b61317f8186613069565b9450600182166000811461319a57600181146131ab576131de565b60ff198316865281860193506131de565b6131b485613153565b60005b838110156131d6578154818901526001820191506020810190506131b7565b838801955050505b50505092915050565b60006131f48285876130c9565b91506131ff82613130565b915061320b8284613168565b9150819050949350505050565b60006132248286613168565b91506132308285613074565b915061323c8284613168565b9150819050949350505050565b7f7b226e616d65223a202200000000000000000000000000000000000000000000600082015250565b600061327f600a83613069565b915061328a82613249565b600a82019050919050565b7f222c20226465736372697074696f6e223a20224120646f6d61696e206f6e207460008201527f6865205369676d61206e616d652073657276696365222c2022696d616765223a60208201527f2022646174613a696d6167652f7376672b786d6c3b6261736536342c00000000604082015250565b6000613317605c83613069565b915061332282613295565b605c82019050919050565b7f222c226c656e677468223a220000000000000000000000000000000000000000600082015250565b6000613363600c83613069565b915061336e8261332d565b600c82019050919050565b7f227d000000000000000000000000000000000000000000000000000000000000600082015250565b60006133af600283613069565b91506133ba82613379565b600282019050919050565b60006133d082613272565b91506133dc8286613074565b91506133e78261330a565b91506133f38285613074565b91506133fe82613356565b915061340a8284613074565b9150613415826133a2565b9150819050949350505050565b7f646174613a6170706c69636174696f6e2f6a736f6e3b6261736536342c000000600082015250565b6000613458601d83613069565b915061346382613422565b601d82019050919050565b60006134798261344b565b91506134858284613074565b915081905092915050565b600060408201905081810360008301526134aa81856125df565b905081810360208301526134be81846125df565b90509392505050565b7f4552433732313a206f70657261746f7220717565727920666f72206e6f6e657860008201527f697374656e7420746f6b656e0000000000000000000000000000000000000000602082015250565b6000613523602c8361258a565b915061352e826134c7565b604082019050919050565b6000602082019050818103600083015261355281613516565b9050919050565b7f4552433732313a207472616e736665722066726f6d20696e636f72726563742060008201527f6f776e6572000000000000000000000000000000000000000000000000000000602082015250565b60006135b560258361258a565b91506135c082613559565b604082019050919050565b600060208201905081810360008301526135e4816135a8565b9050919050565b7f4552433732313a207472616e7366657220746f20746865207a65726f2061646460008201527f7265737300000000000000000000000000000000000000000000000000000000602082015250565b600061364760248361258a565b9150613652826135eb565b604082019050919050565b600060208201905081810360008301526136768161363a565b9050919050565b7f4e487b7100000000000000000000000000000000000000000000000000000000600052601160045260246000fd5b60006136b78261263a565b91506136c28361263a565b9250828210156136d5576136d461367d565b5b828203905092915050565b60006136eb8261263a565b91506136f68361263a565b9250827fffffffffffffffffffffffffffffffffffffffffffffffffffffffffffffffff0382111561372b5761372a61367d565b5b828201905092915050565b7f4552433732313a20617070726f766520746f2063616c6c657200000000000000600082015250565b600061376c60198361258a565b915061377782613736565b602082019050919050565b6000602082019050818103600083015261379b8161375f565b9050919050565b7f4552433732313a207472616e7366657220746f206e6f6e20455243373231526560008201527f63656976657220696d706c656d656e7465720000000000000000000000000000602082015250565b60006137fe60328361258a565b9150613809826137a2565b604082019050919050565b6000602082019050818103600083015261382d816137f1565b9050919050565b7f4552433732314d657461646174613a2055524920717565727920666f72206e6f60008201527f6e6578697374656e7420746f6b656e0000000000000000000000000000000000602082015250565b6000613890602f8361258a565b915061389b82613834565b604082019050919050565b600060208201905081810360008301526138bf81613883565b9050919050565b7f4e487b7100000000000000000000000000000000000000000000000000000000600052603260045260246000fd5b60006139008261263a565b91507fffffffffffffffffffffffffffffffffffffffffffffffffffffffffffffffff8214156139335761393261367d565b5b600182019050919050565b7f4e487b7100000000000000000000000000000000000000000000000000000000600052601260045260246000fd5b60006139788261263a565b91506139838361263a565b9250826139935761399261393e565b5b828204905092915050565b60006139a98261263a565b91506139b48361263a565b9250826139c4576139c361393e565b5b828206905092915050565b600060808201905081810360008301526139e981876125df565b905081810360208301526139fd81866125df565b90508181036040830152613a1181856125df565b9050613a206060830184612963565b95945050505050565b6000613a348261263a565b9150613a3f8361263a565b9250817fffffffffffffffffffffffffffffffffffffffffffffffffffffffffffffffff0483118215151615613a7857613a7761367d565b5b828202905092915050565b7f45524337323155524953746f726167653a2055524920736574206f66206e6f6e60008201527f6578697374656e7420746f6b656e000000000000000000000000000000000000602082015250565b6000613adf602e8361258a565b9150613aea82613a83565b604082019050919050565b60006020820190508181036000830152613b0e81613ad2565b9050919050565b600081519050919050565b600082825260208201905092915050565b6000613b3c82613b15565b613b468185613b20565b9350613b5681856020860161259b565b613b5f816125ce565b840191505092915050565b6000608082019050613b7f60008301876126cf565b613b8c60208301866126cf565b613b996040830185612963565b8181036060830152613bab8184613b31565b905095945050505050565b600081519050613bc5816124f0565b92915050565b600060208284031215613be157613be06124ba565b5b6000613bef84828501613bb6565b91505092915050565b7f4552433732313a206d696e7420746f20746865207a65726f2061646472657373600082015250565b6000613c2e60208361258a565b9150613c3982613bf8565b602082019050919050565b60006020820190508181036000830152613c5d81613c21565b9050919050565b7f4552433732313a20746f6b656e20616c7265616479206d696e74656400000000600082015250565b6000613c9a601c8361258a565b9150613ca582613c64565b602082019050919050565b60006020820190508181036000830152613cc981613c8d565b905091905056fe0a2d2d2d2d2d2d2d2d2d2d2d2d2d2d2d2d2d2d2d2d2d2d2d2d2d2d2d2d2d2d2d2d2d2d2d2d2d2d2d2d2d2d2d2d2d2d2d2d2d2d2d2d2d2d2d2d5265676973746572696e672025732e2573206f6e2074686520636f6e7472616374207769746820746f6b656e49442025642d2d2d2d2d2d2d2d2d2d2d2d2d2d2d2d2d2d2d2d2d2d2d2d2d2d2d2d2d2d2d2d2d2d2d2d2d2d2d2d2d2d2d2d2d2d2d2d2d2d2d2d2d2d2d2d0a4142434445464748494a4b4c4d4e4f505152535455565758595a6162636465666768696a6b6c6d6e6f707172737475767778797a303132333435363738392b2fa2646970667358221220031ac1c2c652e24bafb595c86c0aea77e7e59c5bd362cf6351b55c93711f0ed864736f6c634300080a00333c73766720786d6c6e733d22687474703a2f2f7777772e77332e6f72672f323030302f737667222077696474683d2232373022206865696768743d22323730222066696c6c3d226e6f6e65223e3c706174682066696c6c3d2275726c282342292220643d224d302030683237307632373048307a222f3e3c646566733e3c66696c7465722069643d22412220636f6c6f722d696e746572706f6c6174696f6e2d66696c746572733d2273524742222066696c746572556e6974733d227573657253706163654f6e55736522206865696768743d22323730222077696474683d22323730223e3c666544726f70536861646f772064783d2230222064793d22312220737464446576696174696f6e3d22322220666c6f6f642d6f7061636974793d222e323235222077696474683d223230302522206865696768743d2232303025222f3e3c2f66696c7465723e3c2f646566733e3c7061746820643d224d37322e3836332034322e393439632d2e3636382d2e3338372d312e3432362d2e35392d322e3139372d2e3539732d312e3532392e3230342d322e3139372e35396c2d31302e30383120362e3033322d362e383520332e3933342d31302e30383120362e303332632d2e3636382e3338372d312e3432362e35392d322e3139372e3539732d312e3532392d2e3230342d322e3139372d2e35396c2d382e3031332d342e37323161342e353220342e35322030203020312d312e3538392d312e363136632d2e3338342d2e3636352d2e3539342d312e3431382d2e3630382d322e313837762d392e3331632d2e3031332d2e3737352e3138352d312e3533382e3537322d322e32303861342e323520342e323520302030203120312e3632352d312e3539356c372e3838342d342e3539632e3636382d2e33383720312e3432362d2e353920322e3139372d2e353973312e3532392e32303420322e3139372e35396c372e38383420342e353961342e353220342e353220302030203120312e35383920312e363136632e3338342e3636352e35393420312e3431382e36303820322e31383776362e3033326c362e38352d342e303635762d362e303332632e3031332d2e3737352d2e3138352d312e3533382d2e3537322d322e32303861342e323520342e32352030203020302d312e3632352d312e3539354c34312e3435362032342e3539632d2e3636382d2e3338372d312e3432362d2e35392d322e3139372d2e3539732d312e3532392e3230342d322e3139372e35396c2d31342e38363420382e36353561342e323520342e32352030203020302d312e36323520312e353935632d2e3338372e36372d2e35383520312e3433342d2e35373220322e3230387631372e343431632d2e3031332e3737352e31383520312e3533382e35373220322e32303861342e323520342e323520302030203020312e36323520312e3539356c31342e38363420382e363535632e3636382e33383720312e3432362e353920322e3139372e353973312e3532392d2e32303420322e3139372d2e35396c31302e3038312d352e39303120362e38352d342e3036352031302e3038312d352e393031632e3636382d2e33383720312e3432362d2e353920322e3139372d2e353973312e3532392e32303420322e3139372e35396c372e38383420342e353961342e353220342e353220302030203120312e35383920312e363136632e3338342e3636352e35393420312e3431382e36303820322e31383776392e333131632e3031332e3737352d2e31383520312e3533382d2e35373220322e32303861342e323520342e32352030203020312d312e36323520312e3539356c2d372e38383420342e373231632d2e3636382e3338372d312e3432362e35392d322e3139372e3539732d312e3532392d2e3230342d322e3139372d2e35396c2d372e3838342d342e353961342e353220342e35322030203020312d312e3538392d312e363136632d2e3338352d2e3636352d2e3539342d312e3431382d2e3630382d322e313837762d362e3033326c2d362e383520342e30363576362e303332632d2e3031332e3737352e31383520312e3533382e35373220322e32303861342e323520342e323520302030203020312e36323520312e3539356c31342e38363420382e363535632e3636382e33383720312e3432362e353920322e3139372e353973312e3532392d2e32303420322e3139372d2e35396c31342e3836342d382e363535632e3635372d2e33393420312e3230342d2e393520312e3538392d312e363136732e3539342d312e3431382e3630392d322e3138375635352e353338632e3031332d2e3737352d2e3138352d312e3533382d2e3537322d322e32303861342e323520342e32352030203020302d312e3632352d312e3539356c2d31342e3939332d382e3738367a222066696c6c3d2223666666222f3e3c646566733e3c6c696e6561724772616469656e742069643d2242222078313d2230222079313d2230222078323d22323730222079323d2232373022206772616469656e74556e6974733d227573657253706163654f6e557365223e3c73746f702073746f702d636f6c6f723d2223636235656565222f3e3c73746f70206f66667365743d2231222073746f702d636f6c6f723d2223306364376534222073746f702d6f7061636974793d222e3939222f3e3c2f6c696e6561724772616469656e743e3c2f646566733e3c7465787420783d2233322e352220793d223233312220666f6e742d73697a653d223237222066696c6c3d2223666666222066696c7465723d2275726c282341292220666f6e742d66616d696c793d22506c7573204a616b617274612053616e732c44656a6156752053616e732c4e6f746f20436f6c6f7220456d6f6a692c4170706c6520436f6c6f7220456d6f6a692c73616e732d73657269662220666f6e742d7765696768743d22626f6c64223e",
    "linkReferences": {},
    "deployedLinkReferences": {}
}